{
  "contractName": "Main",
  "abi": [
    {
      "inputs": [],
      "stateMutability": "nonpayable",
      "type": "constructor"
    },
    {
      "anonymous": false,
      "inputs": [
        {
          "indexed": false,
          "internalType": "address",
          "name": "distributor",
          "type": "address"
        }
      ],
      "name": "DistributorCreated",
      "type": "event"
    },
    {
      "inputs": [],
      "name": "vaccines",
      "outputs": [
        {
          "internalType": "uint256",
          "name": "",
          "type": "uint256"
        }
      ],
      "stateMutability": "view",
      "type": "function",
      "constant": true
    },
    {
      "inputs": [
        {
          "internalType": "address",
          "name": "owners",
          "type": "address"
        }
      ],
      "name": "newManufacturer",
      "outputs": [],
      "stateMutability": "nonpayable",
      "type": "function"
    },
    {
      "inputs": [
        {
          "internalType": "address",
          "name": "owners",
          "type": "address"
        }
      ],
      "name": "newWarehouse",
      "outputs": [],
      "stateMutability": "nonpayable",
      "type": "function"
    },
    {
      "inputs": [
        {
          "internalType": "address",
          "name": "owners",
          "type": "address"
        }
      ],
      "name": "newHospital",
      "outputs": [],
      "stateMutability": "nonpayable",
      "type": "function"
    },
    {
      "inputs": [
        {
          "internalType": "uint256",
          "name": "x",
          "type": "uint256"
        }
      ],
      "name": "addVaccines",
      "outputs": [],
      "stateMutability": "nonpayable",
      "type": "function"
    },
    {
      "inputs": [
        {
          "internalType": "uint256",
          "name": "x",
          "type": "uint256"
        }
      ],
      "name": "removeVaccines",
      "outputs": [],
      "stateMutability": "nonpayable",
      "type": "function"
    }
  ],
  "bytecode": "0x608060405234801561001057600080fd5b50336000806101000a81548173ffffffffffffffffffffffffffffffffffffffff021916908373ffffffffffffffffffffffffffffffffffffffff160217905550600060018190555061150a806100686000396000f3fe60806040523480156200001157600080fd5b50600436106200006a5760003560e01c8063080736d9146200006f578063616bade8146200008f57806388f42d8d14620000af57806393ed8a0b14620000cf578063b36f99f714620000f1578063d4e5b98a1462000111575b600080fd5b6200008d600480360381019062000087919062000709565b62000131565b005b620000ad6004803603810190620000a791906200073b565b62000299565b005b620000cd6004803603810190620000c7919062000709565b62000348565b005b620000d9620004b0565b604051620000e8919062000939565b60405180910390f35b6200010f60048036038101906200010991906200073b565b620004b6565b005b6200012f600480360381019062000129919062000709565b62000565565b005b60008054906101000a900473ffffffffffffffffffffffffffffffffffffffff1673ffffffffffffffffffffffffffffffffffffffff163373ffffffffffffffffffffffffffffffffffffffff1614620001c2576040517f08c379a0000000000000000000000000000000000000000000000000000000008152600401620001b99062000917565b60405180910390fd5b600030826001604051620001d690620006cd565b620001e4939291906200083e565b604051809103906000f08015801562000201573d6000803e3d6000fd5b5090506001600260008373ffffffffffffffffffffffffffffffffffffffff1673ffffffffffffffffffffffffffffffffffffffff16815260200190815260200160002060006101000a81548160ff0219169083151502179055507f3b62b47c481e4ad60de3b59d2b9f3bc6594ac0921f891ad799bb1b75efbb5382816040516200028d919062000821565b60405180910390a15050565b60011515600260003373ffffffffffffffffffffffffffffffffffffffff1673ffffffffffffffffffffffffffffffffffffffff16815260200190815260200160002060009054906101000a900460ff161515146200032f576040517f08c379a00000000000000000000000000000000000000000000000000000000081526004016200032690620008f5565b60405180910390fd5b806001546200033f9190620009c4565b60018190555050565b60008054906101000a900473ffffffffffffffffffffffffffffffffffffffff1673ffffffffffffffffffffffffffffffffffffffff163373ffffffffffffffffffffffffffffffffffffffff1614620003d9576040517f08c379a0000000000000000000000000000000000000000000000000000000008152600401620003d09062000917565b60405180910390fd5b600030826002604051620003ed90620006cd565b620003fb939291906200087b565b604051809103906000f08015801562000418573d6000803e3d6000fd5b5090506001600260008373ffffffffffffffffffffffffffffffffffffffff1673ffffffffffffffffffffffffffffffffffffffff16815260200190815260200160002060006101000a81548160ff0219169083151502179055507f3b62b47c481e4ad60de3b59d2b9f3bc6594ac0921f891ad799bb1b75efbb538281604051620004a4919062000821565b60405180910390a15050565b60015481565b60011515600260003373ffffffffffffffffffffffffffffffffffffffff1673ffffffffffffffffffffffffffffffffffffffff16815260200190815260200160002060009054906101000a900460ff161515146200054c576040517f08c379a00000000000000000000000000000000000000000000000000000000081526004016200054390620008f5565b60405180910390fd5b806001546200055c919062000967565b60018190555050565b60008054906101000a900473ffffffffffffffffffffffffffffffffffffffff1673ffffffffffffffffffffffffffffffffffffffff163373ffffffffffffffffffffffffffffffffffffffff1614620005f6576040517f08c379a0000000000000000000000000000000000000000000000000000000008152600401620005ed9062000917565b60405180910390fd5b6000308260036040516200060a90620006cd565b6200061893929190620008b8565b604051809103906000f08015801562000635573d6000803e3d6000fd5b5090506001600260008373ffffffffffffffffffffffffffffffffffffffff1673ffffffffffffffffffffffffffffffffffffffff16815260200190815260200160002060006101000a81548160ff0219169083151502179055507f3b62b47c481e4ad60de3b59d2b9f3bc6594ac0921f891ad799bb1b75efbb538281604051620006c1919062000821565b60405180910390a15050565b6109238062000bb283390190565b600081359050620006ec8162000b7d565b92915050565b600081359050620007038162000b97565b92915050565b60006020828403121562000722576200072162000ada565b5b60006200073284828501620006db565b91505092915050565b60006020828403121562000754576200075362000ada565b5b60006200076484828501620006f2565b91505092915050565b6200077881620009ff565b82525050565b620007898162000a47565b82525050565b6200079a8162000a6f565b82525050565b620007ab8162000a83565b82525050565b620007bc8162000a97565b82525050565b6000620007d160348362000956565b9150620007de8262000adf565b604082019050919050565b6000620007f860338362000956565b9150620008058262000b2e565b604082019050919050565b6200081b8162000a3d565b82525050565b60006020820190506200083860008301846200076d565b92915050565b60006060820190506200085560008301866200077e565b6200086460208301856200076d565b6200087360408301846200078f565b949350505050565b60006060820190506200089260008301866200077e565b620008a160208301856200076d565b620008b06040830184620007a0565b949350505050565b6000606082019050620008cf60008301866200077e565b620008de60208301856200076d565b620008ed6040830184620007b1565b949350505050565b600060208201905081810360008301526200091081620007c2565b9050919050565b600060208201905081810360008301526200093281620007e9565b9050919050565b600060208201905062000950600083018462000810565b92915050565b600082825260208201905092915050565b6000620009748262000a3d565b9150620009818362000a3d565b9250827fffffffffffffffffffffffffffffffffffffffffffffffffffffffffffffffff03821115620009b957620009b862000aab565b5b828201905092915050565b6000620009d18262000a3d565b9150620009de8362000a3d565b925082821015620009f457620009f362000aab565b5b828203905092915050565b600062000a0c8262000a1d565b9050919050565b6000819050919050565b600073ffffffffffffffffffffffffffffffffffffffff82169050919050565b6000819050919050565b600062000a548262000a5b565b9050919050565b600062000a688262000a1d565b9050919050565b600062000a7c8262000a13565b9050919050565b600062000a908262000a13565b9050919050565b600062000aa48262000a13565b9050919050565b7f4e487b7100000000000000000000000000000000000000000000000000000000600052601160045260246000fd5b600080fd5b7f546869732066756e6374696f6e206973207265737472696374656420746f207460008201527f6865206469737472696275746f7273206f6e6c79000000000000000000000000602082015250565b7f546869732066756e6374696f6e206973207265737472696374656420746f207460008201527f686520636f6e74726163742773206f776e657200000000000000000000000000602082015250565b62000b8881620009ff565b811462000b9457600080fd5b50565b62000ba28162000a3d565b811462000bae57600080fd5b5056fe608060405234801561001057600080fd5b5060405161092338038061092383398181016040528101906100329190610109565b826000806101000a81548173ffffffffffffffffffffffffffffffffffffffff021916908373ffffffffffffffffffffffffffffffffffffffff16021790555081600160006101000a81548173ffffffffffffffffffffffffffffffffffffffff021916908373ffffffffffffffffffffffffffffffffffffffff1602179055508060028190555060006003819055505050506101f4565b6000815190506100d9816101af565b92915050565b6000815190506100ee816101c6565b92915050565b600081519050610103816101dd565b92915050565b600080600060608486031215610122576101216101aa565b5b6000610130868287016100df565b9350506020610141868287016100ca565b9250506040610152868287016100f4565b9150509250925092565b60006101678261018a565b9050919050565b60006101798261015c565b9050919050565b6000819050919050565b600073ffffffffffffffffffffffffffffffffffffffff82169050919050565b600080fd5b6101b88161015c565b81146101c357600080fd5b50565b6101cf8161016e565b81146101da57600080fd5b50565b6101e681610180565b81146101f157600080fd5b50565b610720806102036000396000f3fe608060405234801561001057600080fd5b50600436106100575760003560e01c806325fc1efa1461005c5780637d999c2f1461007857806393ed8a0b14610094578063b36f99f7146100b2578063ff762044146100ce575b600080fd5b61007660048036038101906100719190610442565b6100ec565b005b610092600480360381019061008d9190610482565b61021a565b005b61009c61035b565b6040516100a9919061052b565b60405180910390f35b6100cc60048036038101906100c79190610482565b610361565b005b6100d6610412565b6040516100e391906104f0565b60405180910390f35b600160009054906101000a900473ffffffffffffffffffffffffffffffffffffffff1673ffffffffffffffffffffffffffffffffffffffff163373ffffffffffffffffffffffffffffffffffffffff161461017c576040517f08c379a00000000000000000000000000000000000000000000000000000000081526004016101739061050b565b60405180910390fd5b6001600254148061018e575060028054145b61019757600080fd5b8173ffffffffffffffffffffffffffffffffffffffff1663b36f99f7826040518263ffffffff1660e01b81526004016101d0919061052b565b600060405180830381600087803b1580156101ea57600080fd5b505af11580156101fe573d6000803e3d6000fd5b505050508060035461021091906105ad565b6003819055505050565b600160009054906101000a900473ffffffffffffffffffffffffffffffffffffffff1673ffffffffffffffffffffffffffffffffffffffff163373ffffffffffffffffffffffffffffffffffffffff16146102aa576040517f08c379a00000000000000000000000000000000000000000000000000000000081526004016102a19061050b565b60405180910390fd5b6003600254146102b957600080fd5b60008054906101000a900473ffffffffffffffffffffffffffffffffffffffff1673ffffffffffffffffffffffffffffffffffffffff1663616bade8826040518263ffffffff1660e01b8152600401610312919061052b565b600060405180830381600087803b15801561032c57600080fd5b505af1158015610340573d6000803e3d6000fd5b505050508060035461035291906105ad565b60038190555050565b60035481565b60016002541461037057600080fd5b60008054906101000a900473ffffffffffffffffffffffffffffffffffffffff1673ffffffffffffffffffffffffffffffffffffffff1663b36f99f7826040518263ffffffff1660e01b81526004016103c9919061052b565b600060405180830381600087803b1580156103e357600080fd5b505af11580156103f7573d6000803e3d6000fd5b50505050806003546104099190610557565b60038190555050565b60025481565b600081359050610427816106bc565b92915050565b60008135905061043c816106d3565b92915050565b6000806040838503121561045957610458610668565b5b600061046785828601610418565b92505060206104788582860161042d565b9150509250929050565b60006020828403121561049857610497610668565b5b60006104a68482850161042d565b91505092915050565b6104b881610605565b82525050565b60006104cb603383610546565b91506104d68261066d565b604082019050919050565b6104ea8161062f565b82525050565b600060208201905061050560008301846104af565b92915050565b60006020820190508181036000830152610524816104be565b9050919050565b600060208201905061054060008301846104e1565b92915050565b600082825260208201905092915050565b60006105628261062f565b915061056d8361062f565b9250827fffffffffffffffffffffffffffffffffffffffffffffffffffffffffffffffff038211156105a2576105a1610639565b5b828201905092915050565b60006105b88261062f565b91506105c38361062f565b9250828210156105d6576105d5610639565b5b828203905092915050565b60006105ec8261060f565b9050919050565b60006105fe826105e1565b9050919050565b6000819050919050565b600073ffffffffffffffffffffffffffffffffffffffff82169050919050565b6000819050919050565b7f4e487b7100000000000000000000000000000000000000000000000000000000600052601160045260246000fd5b600080fd5b7f546869732066756e6374696f6e206973207265737472696374656420746f207460008201527f686520636f6e74726163742773206f776e657200000000000000000000000000602082015250565b6106c5816105f3565b81146106d057600080fd5b50565b6106dc8161062f565b81146106e757600080fd5b5056fea26469706673582212201acfdf975c80e50f16dbe865dd0c4c65e6da6463d14a468b4b47b7b7895c86a464736f6c63430008060033a26469706673582212208722a47c592344db2ba38bd73fcdfcfde9e14b264f09810eafbfb8f04442410564736f6c63430008060033",
  "immutableReferences": {},
  "source": "// SPDX-License-Identifier: MIT\r\npragma solidity >=0.7.0 <0.9.0;\r\n\r\ncontract Main {\r\n  address owner;\r\n  uint256 public vaccines;\r\n  mapping(address => bool) distributors;\r\n  event DistributorCreated(address distributor);\r\n\r\n  modifier ownerOnly() {\r\n    require(\r\n      msg.sender == owner,\r\n      \"This function is restricted to the contract's owner\"\r\n    );\r\n    _;\r\n  }\r\n  \r\n  modifier distributorOnly() {\r\n    require(\r\n      distributors[msg.sender] == true,\r\n      \"This function is restricted to the distributors only\"\r\n    );\r\n    _;\r\n  }\r\n  \r\n  constructor() {\r\n    owner = msg.sender;\r\n    vaccines = 0;\r\n  }\r\n  \r\n  function newManufacturer(address owners) public ownerOnly {\r\n    Distributor distributor = new Distributor(this, owners, 1);\r\n    distributors[address(distributor)] = true;\r\n    emit DistributorCreated(address(distributor));\r\n  }\r\n  \r\n  function newWarehouse(address owners) public ownerOnly {\r\n    Distributor distributor = new Distributor(this, owners, 2);\r\n    distributors[address(distributor)] = true;\r\n    emit DistributorCreated(address(distributor));\r\n  }\r\n  \r\n  function newHospital(address owners) public ownerOnly {\r\n    Distributor distributor = new Distributor(this, owners, 3);\r\n    distributors[address(distributor)] = true;\r\n    emit DistributorCreated(address(distributor));\r\n  }\r\n  \r\n  function addVaccines(uint256 x) public distributorOnly {\r\n      vaccines = vaccines + x;\r\n  }\r\n  \r\n  function removeVaccines(uint256 x) public distributorOnly {\r\n      vaccines = vaccines - x;\r\n  }\r\n}\r\n\r\ncontract Distributor {\r\n  Main m;\r\n  address owner;\r\n  int public Type;\r\n  uint256 public vaccines;\r\n    \r\n  modifier restricted() {\r\n    require(\r\n      msg.sender == owner,\r\n      \"This function is restricted to the contract's owner\"\r\n    );\r\n    _;\r\n  }\r\n  \r\n  constructor(Main addr, address owners, int Types) {\r\n      m = addr;\r\n      owner = owners;\r\n      Type = Types;\r\n      vaccines = 0;\r\n  }\r\n  \r\n  function addVaccines(uint256 x) public {\r\n      require(Type == 1);\r\n      m.addVaccines(x);\r\n      vaccines = vaccines + x;\r\n  }\r\n  \r\n  function transferVaccines(Distributor recipient, uint256 x) public restricted {\r\n      require(Type == 1 || Type == 2);\r\n      recipient.addVaccines(x);\r\n      vaccines = vaccines - x;\r\n  }\r\n  \r\n  function useVaccines(uint256 x) public restricted {\r\n      require(Type == 3);\r\n      m.removeVaccines(x);\r\n      vaccines = vaccines - x;\r\n  }\r\n}",
  "sourcePath": "C:/Users/kusha/Documents/GitHub/iertians_fullstack_hack21/contracts/Main.sol",
  "compiler": {
    "name": "solc",
    "version": "0.8.6+commit.11564f7e.Emscripten.clang"
  },
  "schemaVersion": "3.4.1",
  "updatedAt": "2021-06-26T21:17:21.670Z",
  "networkType": "ethereum",
  "devdoc": {
    "kind": "dev",
    "methods": {},
    "version": 1
  },
  "userdoc": {
    "kind": "user",
    "methods": {},
    "version": 1
  }
}